{
  "contractName": "VotingSystem",
  "abi": [
    {
      "inputs": [],
      "stateMutability": "nonpayable",
      "type": "constructor"
    },
    {
      "inputs": [],
      "name": "admin",
      "outputs": [
        {
          "internalType": "address",
          "name": "",
          "type": "address"
        }
      ],
      "stateMutability": "view",
      "type": "function"
    },
    {
      "inputs": [
        {
          "internalType": "uint256",
          "name": "",
          "type": "uint256"
        }
      ],
      "name": "candidates",
      "outputs": [
        {
          "internalType": "uint256",
          "name": "id",
          "type": "uint256"
        },
        {
          "internalType": "string",
          "name": "name",
          "type": "string"
        },
        {
          "internalType": "uint256",
          "name": "voteCount",
          "type": "uint256"
        }
      ],
      "stateMutability": "view",
      "type": "function"
    },
    {
      "inputs": [],
      "name": "candidatesCount",
      "outputs": [
        {
          "internalType": "uint256",
          "name": "",
          "type": "uint256"
        }
      ],
      "stateMutability": "view",
      "type": "function"
    },
    {
      "inputs": [
        {
          "internalType": "address",
          "name": "",
          "type": "address"
        }
      ],
      "name": "voters",
      "outputs": [
        {
          "internalType": "bool",
          "name": "isRegistered",
          "type": "bool"
        },
        {
          "internalType": "bool",
          "name": "hasVoted",
          "type": "bool"
        },
        {
          "internalType": "uint256",
          "name": "votedCandidateId",
          "type": "uint256"
        }
      ],
      "stateMutability": "view",
      "type": "function"
    },
    {
      "inputs": [],
      "name": "votingOpen",
      "outputs": [
        {
          "internalType": "bool",
          "name": "",
          "type": "bool"
        }
      ],
      "stateMutability": "view",
      "type": "function"
    },
    {
      "inputs": [
        {
          "internalType": "string",
          "name": "_name",
          "type": "string"
        }
      ],
      "name": "addCandidate",
      "outputs": [],
      "stateMutability": "nonpayable",
      "type": "function"
    },
    {
      "inputs": [
        {
          "internalType": "address",
          "name": "_voterAddress",
          "type": "address"
        }
      ],
      "name": "registerVoter",
      "outputs": [],
      "stateMutability": "nonpayable",
      "type": "function"
    },
    {
      "inputs": [
        {
          "internalType": "uint256",
          "name": "_candidateId",
          "type": "uint256"
        }
      ],
      "name": "vote",
      "outputs": [],
      "stateMutability": "nonpayable",
      "type": "function"
    },
    {
      "inputs": [],
      "name": "endVoting",
      "outputs": [],
      "stateMutability": "nonpayable",
      "type": "function"
    },
    {
      "inputs": [],
      "name": "getWinner",
      "outputs": [
        {
          "internalType": "string",
          "name": "",
          "type": "string"
        }
      ],
      "stateMutability": "view",
      "type": "function"
    }
  ],
  "bytecode": "0x608060405234801561001057600080fd5b5060008054600160a060020a031916331790556004805460ff19166001179055610b618061003f6000396000f3fe608060405234801561001057600080fd5b50600436106100bb576000357c0100000000000000000000000000000000000000000000000000000000900480638e7ea5b2116100835780638e7ea5b214610139578063a3ec138d1461014e578063a95824b41461019f578063c3403ddf146101bc578063f851a440146101c457600080fd5b80630121b93f146100c05780632d35a8a2146100d55780633477ee2e146100f157806338db6dd314610113578063462e91ec14610126575b600080fd5b6100d36100ce36600461077b565b6101ef565b005b6100de60035481565b6040519081526020015b60405180910390f35b6101046100ff36600461077b565b6103b8565b6040516100e8939291906107da565b6100d3610121366004610803565b610462565b6100d3610134366004610862565b61055d565b6101416105f4565b6040516100e89190610913565b61018261015c366004610803565b6002602052600090815260409020805460019091015460ff808316926101009004169083565b6040805193151584529115156020840152908201526060016100e8565b6004546101ac9060ff1681565b60405190151581526020016100e8565b6100d3610742565b6000546101d790600160a060020a031681565b604051600160a060020a0390911681526020016100e8565b60045460ff166102495760405160e560020a62461bcd02815260206004820152601360248201527f566f74696e67206973206e6f74206f70656e2e0000000000000000000000000060448201526064015b60405180910390fd5b3360009081526002602052604090205460ff166102ab5760405160e560020a62461bcd02815260206004820152601860248201527f566f746572206973206e6f7420726567697374657265642e00000000000000006044820152606401610240565b33600090815260026020526040902054610100900460ff16156103135760405160e560020a62461bcd02815260206004820152601860248201527f566f7465722068617320616c726561647920766f7465642e00000000000000006044820152606401610240565b60008111801561032557506003548111155b6103745760405160e560020a62461bcd02815260206004820152601560248201527f496e76616c69642063616e6469646174652049442e00000000000000000000006044820152606401610240565b336000908152600260208181526040808420805461ff00191661010017815560019081018690558585529091528220018054916103b083610926565b919050555050565b6001602081905260009182526040909120805491810180546103d990610966565b80601f016020809104026020016040519081016040528092919081815260200182805461040590610966565b80156104525780601f1061042757610100808354040283529160200191610452565b820191906000526020600020905b81548152906001019060200180831161043557829003601f168201915b5050505050908060020154905083565b600054600160a060020a0316331461048f5760405160e560020a62461bcd028152600401610240906109b9565b600160a060020a03811660009081526002602052604090205460ff16156104fb5760405160e560020a62461bcd02815260206004820152601c60248201527f566f74657220697320616c726561647920726567697374657265642e000000006044820152606401610240565b60408051606081018252600180825260006020808401828152848601838152600160a060020a03979097168352600290915293902091518254935161ffff1990941690151561ff00191617610100931515939093029290921781559151910155565b600054600160a060020a0316331461058a5760405160e560020a62461bcd028152600401610240906109b9565b6003805490600061059a83610926565b9091555050604080516060810182526003548082526020808301858152600084860181905292835260019182905293909120825181559251919291908201906105e39082610a65565b506040820151816002015590505050565b60045460609060ff161561064d5760405160e560020a62461bcd02815260206004820152601560248201527f566f74696e67206973207374696c6c206f70656e2e00000000000000000000006044820152606401610240565b60008060015b600354811161069f5760008181526001602052604090206002015483101561068d5760008181526001602052604090206002015492509050805b8061069781610926565b915050610653565b5060008181526001602081905260409091200180546106bd90610966565b80601f01602080910402602001604051908101604052809291908181526020018280546106e990610966565b80156107365780601f1061070b57610100808354040283529160200191610736565b820191906000526020600020905b81548152906001019060200180831161071957829003601f168201915b50505050509250505090565b600054600160a060020a0316331461076f5760405160e560020a62461bcd028152600401610240906109b9565b6004805460ff19169055565b60006020828403121561078d57600080fd5b5035919050565b6000815180845260005b818110156107ba5760208185018101518683018201520161079e565b506000602082860101526020601f19601f83011685010191505092915050565b8381526060602082015260006107f36060830185610794565b9050826040830152949350505050565b60006020828403121561081557600080fd5b8135600160a060020a038116811461082c57600080fd5b9392505050565b7f4e487b7100000000000000000000000000000000000000000000000000000000600052604160045260246000fd5b60006020828403121561087457600080fd5b813567ffffffffffffffff8082111561088c57600080fd5b818401915084601f8301126108a057600080fd5b8135818111156108b2576108b2610833565b604051601f8201601f19908116603f011681019083821181831017156108da576108da610833565b816040528281528760208487010111156108f357600080fd5b826020860160208301376000928101602001929092525095945050505050565b60208152600061082c6020830184610794565b60006001820161095f577f4e487b7100000000000000000000000000000000000000000000000000000000600052601160045260246000fd5b5060010190565b60028104600182168061097a57607f821691505b6020821081036109b3577f4e487b7100000000000000000000000000000000000000000000000000000000600052602260045260246000fd5b50919050565b60208082526023908201527f4f6e6c792061646d696e2063616e20706572666f726d2074686973206163746960408201527f6f6e2e0000000000000000000000000000000000000000000000000000000000606082015260800190565b601f821115610a60576000818152602081206020601f86010481016020861015610a3d5750805b6020601f860104820191505b81811015610a5c57828155600101610a49565b5050505b505050565b815167ffffffffffffffff811115610a7f57610a7f610833565b610a9381610a8d8454610966565b84610a16565b602080601f831160018114610acc5760008415610ab05750858301515b60028086026008870290910a6000190419821617865550610a5c565b600085815260208120601f198616915b82811015610afb57888601518255948401946001909101908401610adc565b5085821015610b1b57878501516008601f88160260020a60001904191681555b505050505060020260010190555056fea2646970667358221220ca94cd99b7c75859bcfbd9ff1533a8e0564eec275b9acf3d3f24d5fbff24fea264736f6c63430008150033",
  "immutableReferences": {},
  "source": "// SPDX-License-Identifier: MIT\r\npragma solidity ^0.8.0;\r\n\r\ncontract VotingSystem {\r\n    struct Candidate {\r\n        uint256 id;\r\n        string name;\r\n        uint256 voteCount;\r\n    }\r\n\r\n    struct Voter {\r\n        bool isRegistered;\r\n        bool hasVoted;\r\n        uint256 votedCandidateId;\r\n    }\r\n\r\n    address public admin;\r\n    mapping(uint256 => Candidate) public candidates;\r\n    mapping(address => Voter) public voters;\r\n    uint256 public candidatesCount;\r\n    bool public votingOpen;\r\n\r\n    modifier onlyAdmin() {\r\n        require(msg.sender == admin, \"Only admin can perform this action.\");\r\n        _;\r\n    }\r\n\r\n    modifier votingIsOpen() {\r\n        require(votingOpen, \"Voting is not open.\");\r\n        _;\r\n    }\r\n\r\n    constructor() {\r\n        admin = msg.sender;\r\n        votingOpen = true;\r\n    }\r\n\r\n    function addCandidate(string memory _name) public onlyAdmin {\r\n        candidatesCount++;\r\n        candidates[candidatesCount] = Candidate(candidatesCount, _name, 0);\r\n    }\r\n\r\n    function registerVoter(address _voterAddress) public onlyAdmin {\r\n        require(!voters[_voterAddress].isRegistered, \"Voter is already registered.\");\r\n        voters[_voterAddress] = Voter(true, false, 0);\r\n    }\r\n\r\n    function vote(uint256 _candidateId) public votingIsOpen {\r\n        require(voters[msg.sender].isRegistered, \"Voter is not registered.\");\r\n        require(!voters[msg.sender].hasVoted, \"Voter has already voted.\");\r\n        require(_candidateId > 0 && _candidateId <= candidatesCount, \"Invalid candidate ID.\");\r\n\r\n        voters[msg.sender].hasVoted = true;\r\n        voters[msg.sender].votedCandidateId = _candidateId;\r\n        candidates[_candidateId].voteCount++;\r\n    }\r\n\r\n    function endVoting() public onlyAdmin {\r\n        votingOpen = false;\r\n    }\r\n\r\n    function getWinner() public view returns (string memory) {\r\n        require(!votingOpen, \"Voting is still open.\");\r\n        uint256 winningVoteCount = 0;\r\n        uint256 winningCandidateId = 0;\r\n\r\n        for (uint256 i = 1; i <= candidatesCount; i++) {\r\n            if (candidates[i].voteCount > winningVoteCount) {\r\n                winningVoteCount = candidates[i].voteCount;\r\n                winningCandidateId = i;\r\n            }\r\n        }\r\n\r\n        return candidates[winningCandidateId].name;\r\n    }\r\n}",
  "sourcePath": "D:\\programming\\project\\VC\\VoteChain\\contracts\\VotingSystem.sol",
  "compiler": {
    "name": "solc",
    "version": "0.8.21+commit.d9974bed.Emscripten.clang"
  },
  "schemaVersion": "3.4.16",
  "updatedAt": "2025-03-12T13:26:04.024Z",
  "devdoc": {
    "kind": "dev",
    "methods": {},
    "version": 1
  },
  "userdoc": {
    "kind": "user",
    "methods": {},
    "version": 1
  }
}